:020000040000FA
:04000000A7EF00F076
:100008005182F2A20AEF00F00CEF00F00DEF00F0C1
:10001800F292F0A012EF00F014EF00F015EF00F0EC
:10002800F090F0A21AEF00F01CEF00F01DEF00F0C6
:10003800F092F2A022EF00F024EF00F025EF00F09C
:10004800F290F2A42AEF00F02CEF00F02DEF00F070
:10005800F2949EA032EF00F034EF00F035EF00F09C
:100068009E909EA23AEF00F03CEF00F03DEF00F0CA
:100078009E929EA442EF00F044EF00F045EF00F09E
:100088009E949EA64AEF00F04CEF00F04DEF00F072
:100098009E969EA852EF00F054EF00F055EF00F046
:1000A8009E989EAA5AEF00F05CEF00F05DEF00F01A
:1000B8009E9A9EAE62EF00F064EF00F065EF00F0EC
:1000C8009E9EA1A06AEF00F06CEF00F06DEF00F0CB
:1000D800A190A1A272EF00F074EF00F075EF00F0AC
:1000E800A192A1A47AEF00F07CEF00F07DEF00F080
:1000F800A194A1A682EF00F084EF00F085EF00F054
:10010800A196A1A88AEF00F08CEF00F08DEF00F027
:10011800A198A1AA92EF00F094EF00F095EF00F0FB
:10012800A19AA1AC9AEF00F09CEF00F09DEF00F0CF
:10013800A19CA1AEA2EF00F0A4EF00F0A5EF00F0A3
:0A014800A19E5192110005EF10F086
:10100000003132334134353642373839432A3023C0
:10101000443132334134353642373839432A30236C
:1010200044003A50D96EDA6ADF30E832E832070B12
:101030003C6E080E3C601FEF08F021EF08F02BEF2C
:1010400008F03A50D96EDA6ADFAC29EF08F02BEFDE
:1010500008F0FFEF09F0000E406E1AEF0AF0010EE3
:10106000406E70EF08F03A50D96EDA6ADF30E8323D
:10107000E832070B3C6E010E3D6E3C2A42EF08F051
:10108000D8903D363C2E40EF08F03D5089123A5042
:10109000D96EDA6A3BB002D0DF9E01D0DF8E1AEF44
:1010A0000AF03A50D96EDA6ADF30E832E832070BDC
:1010B0003C6E010E3D6E3C2A60EF08F0D8903D3644
:1010C0003C2E5EEF08F03D50FF0A89163A50D96E6B
:1010D000DA6A3BB002D0DF9E01D0DF8E1AEF0AF051
:1010E0003B503C6E3D6A3D50000AD8B47AEF08F0A0
:1010F0002BEF08F03C50000AD8B451EF08F0010A79
:10110000D8B433EF08F02BEF08F0010E406EC6EFB5
:1011100008F03A50D96EDA6ADF30E832E832070B6D
:101120003C6E010E3D6E3C2A98EF08F0D8903D369B
:101130003C2E96EF08F03D508A123A50D96EDA6A8A
:101140003BB002D0DF9E01D0DF8E1AEF0AF03A509A
:10115000D96EDA6ADF30E832E832070B3C6E010EF6
:101160003D6E3C2AB6EF08F0D8903D363C2EB4EFE9
:1011700008F03D50FF0A8A163A50D96EDA6A3BB041
:1011800002D0DF9E01D0DF8E1AEF0AF03B503C6E9A
:101190003D6A3D50000AD8B4D0EF08F02BEF08F0BC
:1011A0003C50000AD8B4A7EF08F0010AD8B489EF80
:1011B00008F02BEF08F0010E406E1CEF09F03A50DA
:1011C000D96EDA6ADF30E832E832070B3C6E010E86
:1011D0003D6E3C2AEEEF08F0D8903D363C2EECEF09
:1011E00008F03D508B123A50D96EDA6A3BB002D00B
:1011F000DF9E01D0DF8E1AEF0AF03A50D96EDA6A1C
:10120000DF30E832E832070B3C6E010E3D6E3C2ABF
:101210000CEF09F0D8903D363C2E0AEF09F03D5016
:10122000FF0A8B163A50D96EDA6A3BB002D0DF9EC5
:1012300001D0DF8E1AEF0AF03B503C6E3D6A3D5004
:10124000000AD8B426EF09F02BEF08F03C50000A52
:10125000D8B4FDEF08F0010AD8B4DFEF08F02BEFA7
:1012600008F0010E406E72EF09F03A50D96EDA6A5A
:10127000DF30E832E832070B3C6E010E3D6E3C2A4F
:1012800044EF09F0D8903D363C2E42EF09F03D5036
:101290008C123A50D96EDA6A3BB002D0DF9E01D090
:1012A000DF8E1AEF0AF03A50D96EDA6ADF30E83290
:1012B000E832070B3C6E010E3D6E3C2A62EF09F0EE
:1012C000D8903D363C2E60EF09F03D50FF0A8C1659
:1012D0003A50D96EDA6A3BB002D0DF9E01D0DF8E81
:1012E0001AEF0AF03B503C6E3D6A3D50000AD8B4FC
:1012F0007CEF09F02BEF08F03C50000AD8B453EF14
:1013000009F0010AD8B435EF09F02BEF08F0010E0F
:10131000406E3A50D96EDA6ADF30E832E832070BB5
:101320003C6E020E3C6497EF09F099EF09F0EAEF8A
:1013300009F02BEF08F03A50D96EDA6ADF30E83264
:10134000E832070B3C6E010E3D6E3C2AAAEF09F015
:10135000D8903D363C2EA8EF09F08D50070B3E6E1D
:101360003D503E128D503E18F80B3E188D6E3A508F
:10137000D96EDA6A3BB002D0DF9E01D0DF8E1AEF61
:101380000AF03A50D96EDA6ADF30E832E832070BF9
:101390003C6E010E3D6E3C2AD0EF09F0D8903D36F0
:1013A0003C2ECEEF09F03D50FF0A3E6E8D50070BEC
:1013B0003F6E3E503F168D503F18F80B3F188D6E14
:1013C0003A50D96EDA6A3BB002D0DF9E01D0DF8E90
:1013D0001AEF0AF03B503C6E3D6A3D50000AD8B40B
:1013E000F4EF09F02BEF08F03C50000AD8B4C1EF3D
:1013F00009F0010AD8B49BEF09F02BEF08F03A503E
:10140000D96EDA6ADF50070B000AD8B42FEF08F064
:10141000010AD8B485EF08F0030AD8B4DBEF08F06E
:10142000010AD8B431EF09F0070AD8B487EF09F000
:101430002BEF08F0405012003A50D96EDA6ADF30D4
:10144000E832E832070B3B6E070E3B642AEF0AF0E6
:101450002CEF0AF0A3EF0BF0000E3D6EBEEF0BF089
:10146000010E3D6E61EF0AF03A50D96EDA6ADF3054
:10147000E832E832070B3B6E010E3C6E3B2A43EF2D
:101480000AF0D8903C363B2E41EF0AF03C509212C5
:10149000BEEF0BF03A50D96EDA6ADF30E832E8324C
:1014A000070B3B6E010E3C6E3B2A59EF0AF0D890B9
:1014B0003C363B2E57EF0AF03C50FF0A9216BEEF27
:1014C0000BF03A50D96EDA6ADFBC69EF0AF06CEFC4
:1014D0000AF0010E6DEF0AF0000E000AD8B44AEFD0
:1014E0000AF0010AD8B434EF0AF02CEF0AF0010E2A
:1014F0003D6EA8EF0AF03A50D96EDA6ADF30E83272
:10150000E832070B3B6E010E3C6E3B2A8AEF0AF075
:10151000D8903C363B2E88EF0AF03C509312BEEF39
:101520000BF03A50D96EDA6ADF30E832E832070B56
:101530003B6E010E3C6E3B2AA0EF0AF0D8903C3681
:101540003B2E9EEF0AF03C50FF0A9316BEEF0BF0C5
:101550003A50D96EDA6ADFBCB0EF0AF0B3EF0AF0A6
:10156000010EB4EF0AF0000E000AD8B491EF0AF0B1
:10157000010AD8B47BEF0AF02CEF0AF0010E3D6EA1
:10158000EFEF0AF03A50D96EDA6ADF30E832E8322B
:10159000070B3B6E010E3C6E3B2AD1EF0AF0D89050
:1015A0003C363B2ECFEF0AF03C509412BEEF0BF0CE
:1015B0003A50D96EDA6ADF30E832E832070B3B6E18
:1015C000010E3C6E3B2AE7EF0AF0D8903C363B2EEA
:1015D000E5EF0AF03C50FF0A9416BEEF0BF03A50CC
:1015E000D96EDA6ADFBCF7EF0AF0FAEF0AF0010E03
:1015F000FBEF0AF0000E000AD8B4D8EF0AF0010A97
:10160000D8B4C2EF0AF02CEF0AF0010E3D6E36EFAF
:101610000BF03A50D96EDA6ADF30E832E832070B65
:101620003B6E010E3C6E3B2A18EF0BF0D8903C3617
:101630003B2E16EF0BF03C509512BEEF0BF03A50DC
:10164000D96EDA6ADF30E832E832070B3B6E010E02
:101650003C6E3B2A2EEF0BF0D8903C363B2E2CEF05
:101660000BF03C50FF0A9516BEEF0BF03A50D96EC6
:10167000DA6ADFBC3EEF0BF041EF0BF0010E42EFF8
:101680000BF0000E000AD8B41FEF0BF0010AD8B41B
:1016900009EF0BF02CEF0AF0010E3D6E3A50D96EB7
:1016A000DA6ADF30E832E832070B3B6E020E3B6449
:1016B0005CEF0BF05EEF0BF08DEF0BF02CEF0AF010
:1016C0003A50D96EDA6ADF30E832E832070B3B6E07
:1016D000010E3C6E3B2A6FEF0BF0D8903C363B2E50
:1016E0006DEF0BF03C509612BEEF0BF03A50D96EF6
:1016F000DA6ADF30E832E832070B3B6E010E3C6EEF
:101700003B2A85EF0BF0D8903C363B2E83EF0BF055
:101710003C50FF0A9616BEEF0BF03A50D96EDA6ACB
:10172000DFBC95EF0BF098EF0BF0010E99EF0BF08B
:10173000000E000AD8B476EF0BF0010AD8B460EFBF
:101740000BF02CEF0AF03A50D96EDA6ADF50070B33
:10175000000AD8B430EF0AF0010AD8B477EF0AF0E3
:10176000030AD8B4BEEF0AF0010AD8B405EF0BF0B3
:10177000070AD8B44CEF0BF02CEF0AF03D501200E2
:101780003A50D96EDA6ADF30E832E832070B3B6E46
:10179000080E3B60CEEF0BF0D0EF0BF0DAEF0BF062
:1017A0003A50D96EDA6ADFACD8EF0BF0DAEF0BF013
:1017B000E0EF0CF0000E3E6EFBEF0CF03A50D96EED
:1017C000DA6ADF30E832E832070B3B6E010E3C6E1E
:1017D0003B2AEDEF0BF0D8903C363B2EEBEF0BF0B5
:1017E0003C50891A3A50D96EDA6ADFBEFAEF0BF034
:1017F000FDEF0BF0010EFEEF0BF0000EFF0A3B6E4B
:101800003A50D96EDA6A3B323B32DF503B187F0BDD
:101810003B18DF6E010E3E6EFBEF0CF03A50D96EB6
:10182000DA6ADF30E832E832070B3B6E010E3C6EBD
:101830003B2A1DEF0CF0D8903C363B2E1BEF0CF0F2
:101840003C508A1A3A50D96EDA6ADFBE2AEF0CF0A1
:101850002DEF0CF0010E2EEF0CF0000EFF0A3B6E88
:101860003A50D96EDA6A3B323B32DF503B187F0B7D
:101870003B18DF6E0AEF0CF03A50D96EDA6ADF30AF
:10188000E832E832070B3B6E010E3C6E3B2A4BEF11
:101890000CF0D8903C363B2E49EF0CF03C508B1AA4
:1018A0003A50D96EDA6ADFBE58EF0CF05BEF0CF0FD
:1018B000010E5CEF0CF0000EFF0A3B6E3A50D96E41
:1018C000DA6A3B323B32DF503B187F0B3B18DF6E4E
:1018D0000AEF0CF03A50D96EDA6ADF30E832E832BB
:1018E000070B3B6E010E3C6E3B2A79EF0CF0D89053
:1018F0003C363B2E77EF0CF03C508C1A3A50D96EA8
:10190000DA6ADFBE86EF0CF089EF0CF0010E8AEF89
:101910000CF0000EFF0A3B6E3A50D96EDA6A3B3289
:101920003B32DF503B187F0B3B18DF6E0AEF0CF0A9
:101930003A50D96EDA6ADF30E832E832070B3B6E94
:10194000020E3B64A6EF0CF0A8EF0CF0AAEF0CF02F
:10195000DAEF0BF03A50D96EDA6ADF30E832E8326B
:10196000070B3B6E010E3C6E3B2AB9EF0CF0D89092
:101970003C363B2EB7EF0CF08D50070B3D6E3C50C4
:101980003D1A8D503D18F80B3D188D6E3A50D96EAA
:10199000DA6ADFBECEEF0CF0D1EF0CF0010ED2EF21
:1019A0000CF0000EFF0A3B6E3A50D96EDA6A3B32F9
:1019B0003B32DF503B187F0B3B18DF6E0AEF0CF019
:1019C0003A50D96EDA6ADF50070B000AD8B4DEEF5E
:1019D0000BF0010AD8B40EEF0CF0030AD8B43CEFB8
:1019E0000CF0010AD8B46AEF0CF0070AD8B498EFEB
:1019F0000CF0DAEF0BF03E501200060E3F6E3A503C
:101A0000D96EDA6ADF30E832E832070B3C6E080E36
:101A10003C600DEF0DF00FEF0DF019EF0DF03A50A7
:101A2000D96EDA6ADFBC17EF0DF019EF0DF0FAEF9F
:101A30000DF0000E3E6E15EF0EF03A50D96EDA6AD8
:101A4000DF30E832E832070B3C6E80CF3DF03C2AB5
:101A50002CEF0DF0D8903D323C2E2AEF0DF03D508A
:101A6000010B3F6E3F04D8B438EF0DF03AEF0DF0A4
:101A700042EF0DF03F50D8A440EF0DF042EF0DF0D3
:101A800019EF0DF03B50D96EDA6A3FC0DFFF010E4F
:101A90003E6E15EF0EF03A50D96EDA6ADF30E8325A
:101AA000E832070B3C6E81CF3DF03C2A5AEF0DF037
:101AB000D8903D323C2E58EF0DF03D50010B3F6E5B
:101AC0003F04D8B466EF0DF068EF0DF042EF0DF073
:101AD0003F50D8A46EEF0DF070EF0DF019EF0DF040
:101AE00042EF0DF03A50D96EDA6ADF30E832E83270
:101AF000070B3C6E82CF3DF03C2A81EF0DF0D89071
:101B00003D323C2E7FEF0DF03D50010B3F6E3F0408
:101B1000D8B48DEF0DF08FEF0DF042EF0DF03F5088
:101B2000D8A495EF0DF097EF0DF019EF0DF042EFFF
:101B30000DF03A50D96EDA6ADF30E832E832070B3E
:101B40003C6E83CF3DF03C2AA8EF0DF0D8903D329B
:101B50003C2EA6EF0DF03D50010B3F6E3F04D8B474
:101B6000B4EF0DF0B6EF0DF042EF0DF03F50D8A4FA
:101B7000BCEF0DF0BEEF0DF019EF0DF042EF0DF0E0
:101B80003A50D96EDA6ADF30E832E832070B3C6E41
:101B9000020E3C64CEEF0DF0D0EF0DF0D2EF0DF061
:101BA00019EF0DF03A50D96EDA6ADF30E832E832D8
:101BB000070B3C6E84500F0B3D6E3C2AE2EF0DF09C
:101BC000D8903D323C2EE0EF0DF03D50010B3F6EC2
:101BD0003F04D8B4EEEF0DF0F0EF0DF042EF0DF052
:101BE0003F50D8A4F6EF0DF0F8EF0DF019EF0DF01F
:101BF00042EF0DF03A50D96EDA6ADF50070B000A57
:101C0000D8B41DEF0DF0010AD8B44BEF0DF0030A64
:101C1000D8B472EF0DF0010AD8B499EF0DF0070AAD
:101C2000D8B4C0EF0DF019EF0DF03E501200000EC9
:101C3000456E2EC044F04050D96EDA6ADF50070B73
:101C4000426E44504218F80B4218446E4050D96E10
:101C5000DA6ADF30E832E832070B426E424642462B
:101C6000424644504218C70B4218446E448C4050C0
:101C7000D96EDA6ADFAE02D0448E01D0449E440EA3
:101C80003A6E450E3B6EFDEC0CF00009D8A44BEF0C
:101C90000EF04DEF0EF04FEF0EF0D5EF0EF040507E
:101CA000D96EDA6ADFBC57EF0EF059EF0EF093EF02
:101CB0000EF04504D8A45FEF0EF061EF0EF089EF4F
:101CC0000EF0030E436E700E426E5C0EE82EFED7D1
:101CD000422EFCD7432EFAD700F000F076EF0EF03C
:101CE000440E3A6E450E3B6EFDEC0CF04550D8A408
:101CF0007CEF0EF07EEF0EF070EF0EF04150D96EDB
:101D0000DA6A010EDF6E4050D96EDA6ADF8ED5EFE7
:101D10000EF04150D96EDA6ADF6A4050D96EDA6A45
:101D2000DF9ED5EF0EF04050D96EDA6ADFAC9BEF44
:101D30000EF09DEF0EF0D5EF0EF04550D8A4A3EFB6
:101D40000EF0A5EF0EF0CCEF0EF0030E436E700E0A
:101D5000426E5C0EE82EFED7422EFCD7432EFAD7F9
:101D600000F000F0BAEF0EF0440E3A6E450E3B6EF6
:101D7000FDEC0CF04504D8A4C0EF0EF0C2EF0EF05D
:101D8000B4EF0EF04150D96EDA6ADF6A4050D96E76
:101D9000DA6ADF9ED5EF0EF04150D96EDA6A010E95
:101DA000DF6E4050D96EDA6ADF8E12004150D96E74
:101DB000DA6ADF50070B426E050E4260E2EF0EF06A
:101DC000E4EF0EF0F4EF0EF04150D96EDA6ADF3036
:101DD000E832E832070B426E070E4264F2EF0EF073
:101DE000F4EF0EF0F6EF0EF03CEF0FF038C043F0DA
:101DF0004150D96EDA6ADF50070B426E43504218E9
:101E0000F80B4218436E4150D96EDA6ADF30E8327F
:101E1000E832070B426E4246424642464350421861
:101E2000C70B4218436E439C4150D96EDA6ADFAC4F
:101E300002D0438E01D0439E430E3A6E1CEC0AF052
:101E40000009D8A426EF0FF028EF0FF02AEF0FF0CB
:101E5000F4EF0EF0430E3A6E000E43BE010E3B6EE1
:101E600011EC08F00009D8A438EF0FF03AEF0FF0AA
:101E70003CEF0FF0F4EF0EF012003E50D96EDA6A2C
:101E8000DF50070B3F6E050E3F6049EF0FF04BEF41
:101E90000FF05BEF0FF03E50D96EDA6ADF30E832B8
:101EA000E832070B3F6E070E3F6459EF0FF05BEF10
:101EB0000FF05DEF0FF091EF0FF02FC040F03E50AC
:101EC000D96EDA6ADF50070B3F6E40503F18F80BAF
:101ED0003F18406E3E50D96EDA6ADF30E832E832A1
:101EE000070B3F6E3F463F463F4640503F18C70BEB
:101EF0003F18406E408C3E50D96EDA6ADFAE02D099
:101F0000408E01D0409E400E3A6E1CEC0AF0000953
:101F1000D8A48DEF0FF08FEF0FF091EF0FF05BEF84
:101F20000FF01200010E426E34C043F03F50D96EE4
:101F3000DA6ADF50070B406E43504018F80B401828
:101F4000436E3F50D96EDA6ADF30E832E832070B71
:101F5000406E40464046404643504018C70B40182C
:101F6000436E439C3F50D96EDA6ADFAC02D0438E99
:101F700001D0439E430E3A6EC0EC0BF00009D8A48A
:101F8000C4EF0FF0C6EF0FF0C8EF0FF0CEEF0FF079
:101F90003F50D96EDA6ADF8C43AEDF9C060E416E8D
:101FA000130E406EAE0EE82EFED7402EFCD7412E0B
:101FB000FAD7430E3A6EC0EC0BF042064250D8A45A
:101FC000E4EF0FF0E6EF0FF0BAEF0FF01200500E53
:101FD000416ED6EC0EF04F0E3E6E3DEC0FF04F0E04
:101FE000406E4E0E416E17EC0EF04E04D8A4FBEF7F
:101FF0000FF0FDEF0FF0EFEF0FF0500E3F6E92EC91
:102000000FF0EFEF0FF0A7EF00F0400EF66E200E8E
:10201000F76E000EF86E00EE46F010EE0BF00900C1
:10202000F5CFEEFFE550E150FAE100EE01F0390E98
:10203000EE6AE806FDE1519051920001E7EF0FF0E2
:0B2040000109111921293139010302A7
:020000040020DA
:08000000FFFFFFFFFFFFFFFF00
:020000040030CA
:0E000000FF02191EFF8981FF0FC00FE00F40A5
:00000001FF
