:020000040000FA
:04000000FDEF0FF011
:10100000003132334134353642373839432A3023C0
:1010100044000D50D96EDA6ADF30E832E832070B4F
:101020000F6E080E0F6017EF08F019EF08F023EFAE
:1010300008F00D50D96EDA6ADFAC21EF08F023EF2B
:1010400008F0F7EF09F0000E136E12EF0AF0010E30
:10105000136E68EF08F00D50D96EDA6ADF30E832AF
:10106000E832070B0F6E010E106E0F2A3AEF08F0F0
:10107000D89010360F2E38EF08F0105089120D500E
:10108000D96EDA6A0EB002D0DF9E01D0DF8E12EF89
:101090000AF00D50D96EDA6ADF30E832E832070B19
:1010A0000F6E010E106E0F2A58EF08F0D890103610
:1010B0000F2E56EF08F01050FF0A89160D50D96E0A
:1010C000DA6A0EB002D0DF9E01D0DF8E12EF0AF096
:1010D0000E500F6E106A1050000AD8B472EF08F06C
:1010E00023EF08F00F50000AD8B449EF08F0010AC6
:1010F000D8B42BEF08F023EF08F0010E136EBEEF0B
:1011000008F00D50D96EDA6ADF30E832E832070BAA
:101110000F6E010E106E0F2A90EF08F0D890103667
:101120000F2E8EEF08F010508A120D50D96EDA6A29
:101130000EB002D0DF9E01D0DF8E12EF0AF00D500C
:10114000D96EDA6ADF30E832E832070B0F6E010E33
:10115000106E0F2AAEEF08F0D89010360F2EACEFBD
:1011600008F01050FF0A8A160D50D96EDA6A0EB0D8
:1011700002D0DF9E01D0DF8E12EF0AF00E500F6E0C
:10118000106A1050000AD8B4C8EF08F023EF08F036
:101190000F50000AD8B49FEF08F0010AD8B481EFCD
:1011A00008F023EF08F0010E136E14EF09F00D5054
:1011B000D96EDA6ADF30E832E832070B0F6E010EC3
:1011C000106E0F2AE6EF08F0D89010360F2EE4EFDD
:1011D00008F010508B120D50D96EDA6A0EB002D0A2
:1011E000DF9E01D0DF8E12EF0AF00D50D96EDA6A61
:1011F000DF30E832E832070B0F6E010E106E0F2A57
:1012000004EF09F0D89010360F2E02EF09F01050BD
:10121000FF0A8B160D50D96EDA6A0EB002D0DF9E2F
:1012200001D0DF8E12EF0AF00E500F6E106A1050D0
:10123000000AD8B41EEF09F023EF08F00F50000A9F
:10124000D8B4F5EF08F0010AD8B4D7EF08F023EFCF
:1012500008F0010E136E6AEF09F00D50D96EDA6ACC
:10126000DF30E832E832070B0F6E010E106E0F2AE6
:101270003CEF09F0D89010360F2E3AEF09F01050DD
:101280008C120D50D96EDA6A0EB002D0DF9E01D0FA
:10129000DF8E12EF0AF00D50D96EDA6ADF30E832D5
:1012A000E832070B0F6E010E106E0F2A5AEF09F08D
:1012B000D89010360F2E58EF09F01050FF0A8C16F8
:1012C0000D50D96EDA6A0EB002D0DF9E01D0DF8EEB
:1012D00012EF0AF00E500F6E106A1050000AD8B4C8
:1012E00074EF09F023EF08F00F50000AD8B44BEF69
:1012F00009F0010AD8B42DEF09F023EF08F0010E30
:10130000136E0D50D96EDA6ADF30E832E832070B1F
:101310000F6E020E0F648FEF09F091EF09F0E2EF0C
:1013200009F023EF08F00D50D96EDA6ADF30E832A9
:10133000E832070B0F6E010E106E0F2AA2EF09F0B4
:10134000D89010360F2EA0EF09F08D50070B116EBC
:10135000105011128D501118F80B11188D6E0D5080
:10136000D96EDA6A0EB002D0DF9E01D0DF8E12EFA6
:101370000AF00D50D96EDA6ADF30E832E832070B36
:101380000F6E010E106E0F2AC8EF09F0D8901036BC
:101390000F2EC6EF09F01050FF0A116E8D50070B8B
:1013A000126E115012168D501218F80B12188D6E05
:1013B0000D50D96EDA6A0EB002D0DF9E01D0DF8EFA
:1013C00012EF0AF00E500F6E106A1050000AD8B4D7
:1013D000ECEF09F023EF08F00F50000AD8B4B9EF92
:1013E00009F0010AD8B493EF09F023EF08F00D508B
:1013F000D96EDA6ADF50070B000AD8B427EF08F07D
:10140000010AD8B47DEF08F0030AD8B4D3EF08F08E
:10141000010AD8B429EF09F0070AD8B47FEF09F020
:1014200023EF08F0135012000D50D96EDA6ADF3046
:10143000E832E832070B0E6E070E0E6422EF0AF058
:1014400024EF0AF09BEF0BF0000E106EB6EF0BF0DE
:10145000010E106E59EF0AF00D50D96EDA6ADF30C6
:10146000E832E832070B0E6E010E0F6E0E2A3BEFCC
:101470000AF0D8900F360E2E39EF0AF00F50921264
:10148000B6EF0BF00D50D96EDA6ADF30E832E83291
:10149000070B0E6E010E0F6E0E2A51EF0AF0D89058
:1014A0000F360E2E4FEF0AF00F50FF0A9216B6EFCE
:1014B0000BF00D50D96EDA6ADFBC61EF0AF064EF11
:1014C0000AF0010E65EF0AF0000E000AD8B442EFF0
:1014D0000AF0010AD8B42CEF0AF024EF0AF0010E4A
:1014E000106EA0EF0AF00D50D96EDA6ADF30E832E4
:1014F000E832070B0E6E010E0F6E0E2A82EF0AF015
:10150000D8900F360E2E80EF0AF00F509312B6EFE0
:101510000BF00D50D96EDA6ADF30E832E832070B93
:101520000E6E010E0F6E0E2A98EF0AF0D8900F364D
:101530000E2E96EF0AF00F50FF0A9316B6EF0BF03F
:101540000D50D96EDA6ADFBCA8EF0AF0ABEF0AF0F3
:10155000010EACEF0AF0000E000AD8B489EF0AF0D1
:10156000010AD8B473EF0AF024EF0AF0010E106EEE
:10157000E7EF0AF00D50D96EDA6ADF30E832E83270
:10158000070B0E6E010E0F6E0E2AC9EF0AF0D890EF
:101590000F360E2EC7EF0AF00F509412B6EF0BF075
:1015A0000D50D96EDA6ADF30E832E832070B0E6E82
:1015B000010E0F6E0E2ADFEF0AF0D8900F360E2EB6
:1015C000DDEF0AF00F50FF0A9416B6EF0BF00D5046
:1015D000D96EDA6ADFBCEFEF0AF0F2EF0AF0010E23
:1015E000F3EF0AF0000E000AD8B4D0EF0AF0010AB7
:1015F000D8B4BAEF0AF024EF0AF0010E106E2EEF05
:101600000BF00D50D96EDA6ADF30E832E832070BA2
:101610000E6E010E0F6E0E2A10EF0BF0D8900F36E3
:101620000E2E0EEF0BF00F509512B6EF0BF00D5083
:10163000D96EDA6ADF30E832E832070B0E6E010E3F
:101640000F6E0E2A26EF0BF0D8900F360E2E24EFD9
:101650000BF00F50FF0A9516B6EF0BF00D50D96E38
:10166000DA6ADFBC36EF0BF039EF0BF0010E3AEF20
:101670000BF0000E000AD8B417EF0BF0010AD8B433
:1016800001EF0BF024EF0AF0010E106E0D50D96E31
:10169000DA6ADF30E832E832070B0E6E020E0E64B3
:1016A00054EF0BF056EF0BF085EF0BF024EF0AF040
:1016B0000D50D96EDA6ADF30E832E832070B0E6E71
:1016C000010E0F6E0E2A67EF0BF0D8900F360E2E1C
:1016D00065EF0BF00F509612B6EF0BF00D50D96E70
:1016E000DA6ADF30E832E832070B0E6E010E0F6E59
:1016F0000E2A7DEF0BF0D8900F360E2E7BEF0BF0FD
:101700000F50FF0A9616B6EF0BF00D50D96EDA6A3D
:10171000DFBC8DEF0BF090EF0BF0010E91EF0BF0B3
:10172000000E000AD8B46EEF0BF0010AD8B458EFDF
:101730000BF024EF0AF00D50D96EDA6ADF50070B78
:10174000000AD8B428EF0AF0010AD8B46FEF0AF003
:10175000030AD8B4B6EF0AF0010AD8B4FDEF0AF0D4
:10176000070AD8B444EF0BF024EF0AF0105012002F
:101770000D50D96EDA6ADF30E832E832070B0E6EB0
:10178000080E0E60C6EF0BF0C8EF0BF0D2EF0BF0B7
:101790000D50D96EDA6ADFACD0EF0BF0D2EF0BF060
:1017A000D8EF0CF0000E116EF3EF0CF00D50D96E67
:1017B000DA6ADF30E832E832070B0E6E010E0F6E88
:1017C0000E2AE5EF0BF0D8900F360E2EE3EF0BF05C
:1017D0000F50891A0D50D96EDA6ADFBEF2EF0BF0A6
:1017E000F5EF0BF0010EF6EF0BF0000EFF0A0E6E98
:1017F0000D50D96EDA6A0E320E32DF500E187F0BA2
:101800000E18DF6E010E116EF3EF0CF00D50D96E55
:10181000DA6ADF30E832E832070B0E6E010E0F6E27
:101820000E2A15EF0CF0D8900F360E2E13EF0CF099
:101830000F508A1A0D50D96EDA6ADFBE22EF0CF013
:1018400025EF0CF0010E26EF0CF0000EFF0A0E6ED5
:101850000D50D96EDA6A0E320E32DF500E187F0B41
:101860000E18DF6E02EF0CF00D50D96EDA6ADF3021
:10187000E832E832070B0E6E010E0F6E0E2A43EFB0
:101880000CF0D8900F360E2E41EF0CF00F508B1A43
:101890000D50D96EDA6ADFBE50EF0CF053EF0CF04A
:1018A000010E54EF0CF0000EFF0A0E6E0D50D96EB3
:1018B000DA6A0E320E32DF500E187F0B0E18DF6E12
:1018C00002EF0CF00D50D96EDA6ADF30E832E83200
:1018D000070B0E6E010E0F6E0E2A71EF0CF0D890F2
:1018E0000F360E2E6FEF0CF00F508C1A0D50D96E74
:1018F000DA6ADFBE7EEF0CF081EF0CF0010E82EFB2
:101900000CF0000EFF0A0E6E0D50D96EDA6A0E3220
:101910000E32DF500E187F0B0E18DF6E02EF0CF048
:101920000D50D96EDA6ADF30E832E832070B0E6EFE
:10193000020E0E649EEF0CF0A0EF0CF0A2EF0CF084
:10194000D2EF0BF00D50D96EDA6ADF30E832E832B0
:10195000070B0E6E010E0F6E0E2AB1EF0CF0D89031
:101960000F360E2EAFEF0CF08D50070B106E0F5090
:10197000101A8D501018F80B10188D6E0D50D96E6E
:10198000DA6ADFBEC6EF0CF0C9EF0CF0010ECAEF49
:101990000CF0000EFF0A0E6E0D50D96EDA6A0E3290
:1019A0000E32DF500E187F0B0E18DF6E02EF0CF0B8
:1019B0000D50D96EDA6ADF50070B000AD8B4D6EFA3
:1019C0000BF0010AD8B406EF0CF0030AD8B434EFD8
:1019D0000CF0010AD8B462EF0CF0070AD8B490EF0B
:1019E0000CF0D2EF0BF011501200060E126E0D50DB
:1019F000D96EDA6ADF30E832E832070B0F6E080E74
:101A00000F6005EF0DF007EF0DF011EF0DF00D5029
:101A1000D96EDA6ADFBC0FEF0DF011EF0DF0F2EFC7
:101A20000DF0000E116E0DEF0EF00D50D96EDA6A4A
:101A3000DF30E832E832070B0F6E80CF10F00F2A4C
:101A400024EF0DF0D89010320F2E22EF0DF0105031
:101A5000010B126E1204D8B430EF0DF032EF0DF01E
:101A60003AEF0DF01250D8A438EF0DF03AEF0DF028
:101A700011EF0DF00E50D96EDA6A12C0DFFF010EC1
:101A8000116E0DEF0EF00D50D96EDA6ADF30E832CC
:101A9000E832070B0F6E81CF10F00F2A52EF0DF0D6
:101AA000D89010320F2E50EF0DF01050010B126E27
:101AB0001204D8B45EEF0DF060EF0DF03AEF0DF0C8
:101AC0001250D8A466EF0DF068EF0DF011EF0DF095
:101AD0003AEF0DF00D50D96EDA6ADF30E832E832B5
:101AE000070B0F6E82CF10F00F2A79EF0DF0D89010
:101AF00010320F2E77EF0DF01050010B126E120402
:101B0000D8B485EF0DF087EF0DF03AEF0DF01250DD
:101B1000D8A48DEF0DF08FEF0DF011EF0DF03AEF2F
:101B20000DF00D50D96EDA6ADF30E832E832070B7B
:101B30000F6E83CF10F00F2AA0EF0DF0D890103267
:101B40000F2E9EEF0DF01050010B126E1204D8B440
:101B5000ACEF0DF0AEEF0DF03AEF0DF01250D8A44F
:101B6000B4EF0DF0B6EF0DF011EF0DF03AEF0DF010
:101B70000D50D96EDA6ADF30E832E832070B0F6EAB
:101B8000020E0F64C6EF0DF0C8EF0DF0CAEF0DF0B6
:101B900011EF0DF00D50D96EDA6ADF30E832E8321D
:101BA000070B0F6E84500F0B106E0F2ADAEF0DF03B
:101BB000D89010320F2ED8EF0DF01050010B126E8E
:101BC0001204D8B4E6EF0DF0E8EF0DF03AEF0DF0A7
:101BD0001250D8A4EEEF0DF0F0EF0DF011EF0DF074
:101BE0003AEF0DF00D50D96EDA6ADF50070B000A9C
:101BF000D8B415EF0DF0010AD8B443EF0DF0030A85
:101C0000D8B46AEF0DF0010AD8B491EF0DF0070ACD
:101C1000D8B4B8EF0DF011EF0DF011501200000E16
:101C2000186E01C017F01350D96EDA6ADF50070B37
:101C3000156E17501518F80B1518176E1350D96E2E
:101C4000DA6ADF30E832E832070B156E15461546C2
:101C5000154617501518C70B1518176E178C13500B
:101C6000D96EDA6ADFAE02D0178E01D0179E170E3A
:101C70000D6E180E0E6EF5EC0CF00009D8A443EFB3
:101C80000EF045EF0EF047EF0EF0CDEF0EF01350D3
:101C9000D96EDA6ADFBC4FEF0EF051EF0EF08BEF2A
:101CA0000EF01804D8A457EF0EF059EF0EF081EFA4
:101CB0000EF0030E166E700E156E5C0EE82EFED73B
:101CC000152EFCD7162EFAD700F000F06EEF0EF0AE
:101CD000170E0D6E180E0E6EF5EC0CF01850D8A401
:101CE00074EF0EF076EF0EF068EF0EF01450D96E30
:101CF000DA6A010EDF6E1350D96EDA6ADF8ECDEF2D
:101D00000EF01450D96EDA6ADF6A1350D96EDA6AAF
:101D1000DF9ECDEF0EF01350D96EDA6ADFAC93EF91
:101D20000EF095EF0EF0CDEF0EF01850D8A49BEF0B
:101D30000EF09DEF0EF0C4EF0EF0030E166E700E57
:101D4000156E5C0EE82EFED7152EFCD7162EFAD790
:101D500000F000F0B2EF0EF0170E0D6E180E0E6EC2
:101D6000F5EC0CF01804D8A4B8EF0EF0BAEF0EF0B2
:101D7000ACEF0EF01450D96EDA6ADF6A1350D96EE8
:101D8000DA6ADF9ECDEF0EF01450D96EDA6A010EDA
:101D9000DF6E1350D96EDA6ADF8E12001450D96EDE
:101DA000DA6ADF50070B156E050E1560DAEF0EF0DC
:101DB000DCEF0EF0ECEF0EF01450D96EDA6ADF3083
:101DC000E832E832070B156E070E1564EAEF0EF0E5
:101DD000ECEF0EF0EEEF0EF034EF0FF00BC016F05C
:101DE0001450D96EDA6ADF50070B156E16501518AD
:101DF000F80B1518166E1450D96EDA6ADF30E83217
:101E0000E832070B156E154615461546165015187F
:101E1000C70B1518166E169C1450D96EDA6ADFAC13
:101E200002D0168E01D0169E160E0D6E14EC0AF01E
:101E30000009D8A41EEF0FF020EF0FF022EF0FF0F3
:101E4000ECEF0EF0160E0D6E000E16BE010E0E6EAD
:101E500009EC08F00009D8A430EF0FF032EF0FF0D2
:101E600034EF0FF0ECEF0EF012001150D96EDA6A79
:101E7000DF50070B126E050E126041EF0FF043EFBB
:101E80000FF053EF0FF01150D96EDA6ADF30E832FD
:101E9000E832070B126E070E126451EF0FF053EF8A
:101EA0000FF055EF0FF089EF0FF002C013F0115053
:101EB000D96EDA6ADF50070B126E13501218F80B46
:101EC0001218136E1150D96EDA6ADF30E832E83238
:101ED000070B126E12461246124613501218C70B09
:101EE0001218136E138C1150D96EDA6ADFAE02D05D
:101EF000138E01D0139E130E0D6E14EC0AF0000920
:101F0000D8A485EF0FF087EF0FF089EF0FF053EFB4
:101F10000FF01200010E156E07C016F01250D96EA8
:101F2000DA6ADF50070B136E16501318F80B1318EC
:101F3000166E1250D96EDA6ADF30E832E832070BDB
:101F4000136E13461346134616501318C70B131877
:101F5000166E169C1250D96EDA6ADFAC02D0168E5D
:101F600001D0169E160E0D6EB8EC0BF00009D8A429
:101F7000BCEF0FF0BEEF0FF0C0EF0FF0C6EF0FF0A9
:101F80001250D96EDA6ADF8C16AEDF9C060E146E24
:101F9000130E136EAE0EE82EFED7132EFCD7142EA2
:101FA000FAD7160E0D6EB8EC0BF015061550D8A426
:101FB000DCEF0FF0DEEF0FF0B2EF0FF01200230EA8
:101FC000146ECEEC0EF0220E116E35EC0FF0220ED8
:101FD000136E210E146E0FEC0EF02104D8A4F3EF53
:101FE0000FF0F5EF0FF0E7EF0FF0230E126E8AEC13
:101FF0000FF0E7EF0FF000EF00F0300EF66E200E5E
:10200000F76E000EF86E00EE19F010EE0BF00900FE
:10201000F5CFEEFFE550E150FAE100EE01F00C0ED5
:10202000EE6AE806FDE1000EF86E0001DFEF0FF04A
:0B2030000109111921293139010302B7
:020000040020DA
:08000000FFFFFFFFFFFFFFFF00
:020000040030CA
:0E000000FF02191EFF8981FF0FC00FE00F40A5
:00000001FF
